:020000040800F2
:10000000001000205D020008AD020008AD020008EB
:1000100000000000000000000000000000000000E0
:10002000000000000000000000000000AD02000819
:100030000000000000000000AD020008F504000808
:10004000AD02000800000000AD020008AD0200088B
:10005000AD020008AD020008AD020008AD020008C4
:1000600000000000510600087D060008C9060008CF
:10007000AD020008AD0200082108000800000000E1
:10008000A10500080000000000000000CD050008E8
:1000900000000000F905000825060008AD02000870
:1000A00000000000AD020008000000007505000817
:1000B0000000000000000000000000000000000040
:1000C00010B5064C2378002B07D1054B002B02D02E
:1000D000044800E000BF0123237010BD2000002071
:1000E0000000000078270008044B10B5002B03D057
:1000F0000349044800E000BF10BDC04600000000F6
:10010000240000207827000802B4714649084900FD
:10011000095C49008E4402BC7047C04603B4714676
:10012000490840004900095E49008E4403BC7047FD
:1001300003B47146490840004900095A49008E44F9
:1001400003BC7047002243088B4274D303098B42DF
:100150005FD3030A8B4244D3030B8B4228D3030C97
:100160008B420DD3FF22090212BA030C8B4202D339
:100170001212090265D0030B8B4219D300E0090A61
:10018000C30B8B4201D3CB03C01A5241830B8B426A
:1001900001D38B03C01A5241430B8B4201D34B0353
:1001A000C01A5241030B8B4201D30B03C01A5241B8
:1001B000C30A8B4201D3CB02C01A5241830A8B423D
:1001C00001D38B02C01A5241430A8B4201D34B0226
:1001D000C01A5241030A8B4201D30B02C01A52418A
:1001E000CDD2C3098B4201D3CB01C01A524183093E
:1001F0008B4201D38B01C01A524143098B4201D378
:100200004B01C01A524103098B4201D30B01C01AA2
:100210005241C3088B4201D3CB00C01A524183081C
:100220008B4201D38B00C01A524143088B4201D349
:100230004B00C01A5241411A00D2014652411046A9
:100240007047FFE701B5002000F006F802BDC04688
:100250000029F7D076E770477047C0460D488546BD
:100260000D480E490E4A002302E0D458C45004330E
:10027000C4188C42F9D30B4A0B4C002301E01360E5
:100280000432A242FBD300F047FA02F03FFA01F039
:100290006BFEFEE700100020000000202000002080
:1002A000E82700082000002050020020FEE70000A0
:1002B00000280BD004280BD005280BD00638434269
:1002C0005841054B40421840C01870470348FCE7AE
:1002D0000348FAE70348F8E7C0C62D00006CDC02CB
:1002E00000366E01001BB7007021034A000113683D
:1002F0008B43184310607047041002400321034AE7
:1003000013688B43184310607047C04604100240C6
:10031000802303499B040A681A42FCD07047C046F8
:10032000001002408023034A5B0411680B431360F2
:100330007047C04600100240802303499B020A68B0
:100340001A42FCD07047C046001002408023034A86
:100350005B0211680B4313607047C04600100240F7
:100360008022044BD20119681143196019681142A7
:10037000FCD0704718100240034B10B518684005B8
:10038000400FFFF795FF10BD04100240034A0449D7
:10039000136800020B4018431060704704100240BD
:1003A000FFF8FFFF034A0449136880040B40184319
:1003B0001060704704100240FFFFC3FF8022044B0F
:1003C000920219681143196019681142FCD07047F4
:1003D000141002408022044BD202196811431960A4
:1003E00019681142FCD07047141002400122044BDE
:1003F00019681143196019681142FCD07047C04652
:10040000141002408022044B120119681143196034
:1004100019681142FCD07047181002400421224B89
:100420001A6813688B431360204A214B02391B68FA
:1004300013688B43136000221E4B1B689A611E4B8E
:100440001B689A611D4B1B689A611D4B19680B68EC
:100450001B031B0B0B601B4B1B681B4B5A801B4A5F
:100460001B4B1B6813685B045B0C1360194A1A4B27
:100470001B6813685B045B0C1360184B184A1B68FD
:1004800013685B045B0C1360164A174B1B681368F8
:100490005B045B0C1360154A154B1B6813685B0407
:1004A0005B0C13607047C046840000200038014098
:1004B0008C000020700000207400002080000020CC
:1004C00004000020880000200030014008000240A5
:1004D000080000201C0002400C000020100000203A
:1004E0003000024044000240140000205800024046
:1004F00018000020054B10B51C68002C05D023689F
:1005000020001B689847A468F7E710BD4801002049
:10051000037B002B0CD101330373064B5A684260F6
:10052000002A00D090601A685860002A00D1186034
:100530007047C04648010020F0B50125030041186E
:100540000A4E0B488B420FD008241A7850404210B4
:100550002840070090B2002F01D0724090B2013CB9
:10056000002CF4D10133EDE7F0BDC04601A0FFFF40
:10057000FFFF0000074B10B51C68002C05D0236856
:1005800020001B6898476468F7E7034B034A1A602A
:1005900010BDC04668000020203801405F0A0200FC
:1005A000084B10B51C68002C05D0236820001B6880
:1005B00098476468F7E70821034A138A8B4313823C
:1005C00010BDC0466000002000040040084B10B57C
:1005D0001C68002C05D0236820001B6898476468BD
:1005E000F7E70821034A138A8B43138210BDC046E4
:1005F0005C00002000200040084B10B51C68002C57
:1006000005D0236820001B6898476468F7E7082135
:10061000034A138A8B43138210BDC0465800002042
:1006200000440140084B10B51C68002C05D023681D
:1006300020001B6898476468F7E70821034A138A7B
:100640008B43138210BDC046540000200048014077
:10065000084B10B51C68002C05D0236820001B68CF
:1006600098476468F7E70F23034A11680B43136048
:1006700010BDC04650000020040002400F4B70B572
:100680001C68002C05D0236820001B68984764680C
:10069000F7E7F0220A4D29680A432A60094A1468DC
:1006A000002C05D0236820001B6898476468F7E792
:1006B000F0232A681B0113432B6070BD4C000020FF
:1006C0000400024048000020104B70B51C68002C4C
:1006D00005D0236820001B6898476468F7E7F0227C
:1006E0000B4D120229680A432A600A4A1468002C3A
:1006F00005D0236820001B6898476468F7E7F0235B
:100700002A681B0313432B6070BDC04644000020C1
:10071000040002404000002037B56B46DD1D002379
:1007200007221A492B700B6893431A0001231343C5
:100730000B60FFF70BFEFFF7FFFD2C780134E4B2EE
:100740002C70002CF9D12000FFF7CEFD2000FFF720
:100750001DFE0420FFF726FE80230D4A5B02116870
:100760000B431360FFF7DEFDFFF7D2FD2B7801335B
:10077000DBB22B70002BF9D10220FFF7BFFD2B78E5
:100780000133DBB22B70002BF9D137BD00200240C2
:10079000041002404A688B68002A0DD0002B08D054
:1007A00093608B685A6000234B608B6070470360D6
:1007B000F8E742609360F6E7002BF8D103604360EE
:1007C000F1E7000010B5037B0100002B04D00023EB
:1007D00003730248FFF7DEFF10BDC046480100204A
:1007E00010B50400024B0360FFF7ECFF200010BDC2
:1007F000A8270008084B10B51C68002C05D02368FA
:1008000020001B6898476468F7E70821034A138AA9
:100810008B43138210BDC04664000020002C0140B1
:1008200010B5FFF7E7FF10BD012370B5040003709A
:100830000D0014220021023001F095FF2000142247
:100840000021163001F08FFF2000142200212A30F1
:1008500001F089FF2000142200213E3001F083FFC7
:1008600020000A220021523001F07DFF22000023E7
:1008700021006032E5651370A366114A114B6431A3
:1008800063661368E466002B02D1116004E0130074
:100890005A68002AFBD159600023210063670A4A85
:1008A0000A4B703123671368A467002B02D11160D3
:1008B00004E013005A68002AFBD15960200070BD83
:1008C00068000020B42700084C000020C027000862
:1008D000F0B50500203585B004000E22FF21280068
:1008E00001F041FF01235B4223630E220021684691
:1008F00001F039FFA36B802219000126D20098185D
:10090000226B88420FD0013222630A780D2A08D860
:100910004F78A2180132D7776F460A78BE54023159
:10092000EEE7FF2AFBD1226B334952009B18C21A13
:10093000D210002A1CDD1E888E4203D15E888E42B2
:1009400009D002336A4698421FD001230020343474
:10095000237005B0F0BD9E888E4201D00433F1E7CC
:10096000DE888E4201D00633ECE70833013AE0E737
:10097000C21A5210022A1BD0032A14D0012A1DD1F8
:1009800019881D4A9142DDD16A4603AB11780029CE
:1009900003D05178002913D101320E236B4400207B
:1009A0009A42D6D120E01988134A9142CAD1023323
:1009B0001988114A9142C5D10233E1E70300C1E72A
:1009C0009178002901D10232E7E7D178002901D1DD
:1009D0000332E2E704329A42D8D16B46187B0028F2
:1009E000B7D0587B0028B4D0E0690E22290001F06E
:1009F000B1FE0120ADE7C046FFFF0000024B1868C2
:100A00004004C00F7047C04610040048024B1868ED
:100A10008004C00F7047C04610040048024B18689D
:100A2000C004C00F7047C046100400482022064B87
:100A30001A600368A03A19780A4301211A705A789B
:100A40008A435A707047C046180000488022044B01
:100A500012041A600823026851780B4353707047E0
:100A60001800004810B504004068FFF7DFFF606819
:100A7000FFF7ECFF0023237010BD10B504004068A1
:100A8000FFF7D4FF6068FFF7E1FF0023237010BD7C
:100A900010B504000078013803280FD8FFF734FBA5
:100AA000020F121EFFF7B2FF002807D06068FFF7A1
:100AB000BDFF6068FFF7CAFF0023237010BDFFF77A
:100AC000ADFFF1E70A4B1021625E5B6A1BB29A42EE
:100AD000EFDAFFF7A3FF0028EBD1EFE7044B10217B
:100AE000625E5B6A1BB29A42E3DDFFF78FFFF2E7BB
:100AF000002C01408022054BD2031A60202302689B
:100B000011780B4340218B43137070471800004845
:100B10008022054B52021A600423026851780B436D
:100B200002218B43537070471804004870B50400CD
:100B3000007A013804280FD80F4DFFF7E5FA0311AA
:100B400003110E001422A35EE06863819BB2EB6385
:100B500005232372FFF7DCFF70BDE068FFF766FF37
:100B6000E068FFF773FFA38A0822E3820023237261
:100B7000EB689343EB60EFE7002C014080220821F3
:100B8000034B1A60026853788B4353707047C0461A
:100B9000180000484023044A1360026811780B4390
:100BA00020218B43137070471800004870B5040073
:100BB0000078032818D8FFF7A7FA022D48468022AC
:100BC0002B4D12012B6813421DD0FFF727FF002881
:100BD0000BD06068FFF78EFF6068FFF799FF6068D1
:100BE000FFF7CCFF0223237070BD2B68DB04FBD41E
:100BF0006068FFF7CFFF6068FFF78AFF6068FFF764
:100C0000BDFF0123EFE72B681340EDD1194A536272
:100C10000323E8E7164B1D6880231B011D4008D104
:100C20006068FFF703FF6068FFF710FF114B5D621C
:100C3000EEE7FFF7F3FE0028D6D06068FFF7F6FE78
:100C40006068FFF703FF0023CDE7094B1D68802391
:100C50001B011D40E4D0FFF7D9FE0028C4D0606816
:100C6000FFF7E4FE6068FFF7F1FE0423BBE7C04630
:100C700010040048002C0140037810B50400012B3B
:100C800013D0002B02D0022B25D010BD4068FFF7F7
:100C900081FF6068FFF73CFF6068FFF7C7FE606890
:100CA000FFF76CFF01232370EFE7FFF7B7FE002883
:100CB000EBD06068FFF7CAFE0D4BE2685B6A6068C4
:100CC0001380FFF717FF6068FFF722FF6068FFF7E8
:100CD00055FF0223E7E7FFF799FE0028D5D06068AB
:100CE000FFF7B4FE024B22695B6A13800323DAE745
:100CF000002C01400122054B1A6002230268517842
:100D00000B4304218B4353707047C04618040048BE
:100D100070B504000D001622A35EA582AB4227D059
:100D2000207AC0B2052823D8FFF7EEF9037289A60E
:100D3000B8CC0823864EF2681343F360736A1BB283
:100D40009D4232DAE068FFF725FF726A218B521A62
:100D500012B295420DDBE068FFF7DAFEE068FFF7BC
:100D600065FE0423ADB2F5632372E068FFF706FF6A
:100D700070BD736A5B1A1BB29D42F6DAE068FFF73A
:100D8000B9FF8021734A8903E368116001221B685F
:100D900059780A437F215A701A780A401A70238BB7
:100DA0005D19ADB2F5630323DEE7736A1BB29D42A2
:100DB000DEDDE068FFF79EFE726A238B9A1812B29E
:100DC000954209DCE068FFF7A3FEADB2E068FFF7EB
:100DD0002DFEF5630223C7E7726A9B181BB29D4282
:100DE000C3DDE068FFF786FF80215A4A8903E36884
:100DF000116001217F201B685A780A435A701A78C3
:100E000002401A70238BED1AADB2F5632172ACE784
:100E10004F4E238B726A9A1812B295420BDCE0682F
:100E2000FFF776FE726A238B9B189BB26381F36394
:100E3000052323729CE7ED1AADB2F56398E74449A8
:100E40004B6A1BB29D4208DAE068FFF7EFFDE068ED
:100E5000FFF7FCFD002323725DE74A6A238B9A1893
:100E600012B2954200DA83E7ED1AADB2CD63E068C5
:100E7000FFF740FF0123DCE7354E218B736A4A19E7
:100E80005B1A92B21BB2F2639D4200DA70E7E0682F
:100E9000FFF73EFE736A228B9B1AC6E72C494B6A0A
:100EA0001BB29D42D0DC4A6A238BD21A12B2954201
:100EB00000DD5DE75D19ADB2CD63E068FFF71AFFB5
:100EC0000323B6E7244B1A6852060CD40A21625E4B
:100ED000AA4208DA1E4A516A228B521812B295426F
:100EE00001DA658144E71A68520606D4184E228B4F
:100EF000716A521812B2954216DC1A6852061BD457
:100F00001B685B0600D433E7114E228B736A9B1A71
:100F10001BB29D4200DB2BE7E068FFF7EBFE238B63
:100F20005D19ADB2F563CBE7E068FFF7E3FE238B15
:100F3000ED1AADB2F5639DE70A21625EAA42DFDDDC
:100F4000034A218B526A521A12B29542D8DDC8E781
:100F5000002C014018000048100000480122044BFA
:100F600019689143196019681142FCD17047C04655
:100F70003000024070B58024074B24011B682342D7
:100F800009D08568FFF7EAFF044B60351A681443FF
:100F90001C6001232B7070BD1C38014020380140BB
:100FA0000122044B19689143196019681142FCD160
:100FB0007047C0461C0002400123024A11680B43DF
:100FC000136070473000024010B52024084B1B68A6
:100FD00023420CD0FFF7E4FFFFF7C0FFFF22054BD1
:100FE0001A60FFF7E9FF044B1A6814431C6010BD38
:100FF00000000240340002400400024010B5FFF738
:10100000E9F9032001210E4B1A6882431A601A681D
:101010000A431A600B4B1A688A431A601A681A60EE
:10102000094B1A6882431A601A681A60074B1A68DB
:101030008A431A601A681A60054B1A681A6010BD54
:101040000004004804040048080400480C04004858
:101050002004004810B5FFF7B1F9902380218020CB
:10106000DB051A680E4CC90122401A601A68114348
:1010700019600C4B1968814319601A681A600A4B91
:101080001A6822401A601A681A60084B1A6882436C
:101090001A601A681A60064B1A681A6010BDC046BA
:1010A000FF3FFFFF04000048080000480C00004814
:1010B0002000004810B5FFF781F9902380214020DF
:1010C000DB051A680E4C490122401A601A68114368
:1010D00019600C4B1968814319601A681A600A4B31
:1010E0001A6822401A601A681A60084B1A6882430C
:1010F0001A601A681A60064B1A681A6010BDC0465A
:10110000FFCFFFFF04000048080000480C00004823
:101110002000004810B5FFF751F9902380212020CE
:10112000DB051A680E4CC90022401A601A68114388
:1011300019600C4B1968814319601A681A600A4BD0
:101140001A6822401A601A681A60084B1A688243AB
:101150001A601A681A60064B1A681A6010BDC046F9
:10116000FFF3FFFF04000048080000480C0000489F
:101170002000004810B5FFF72DF9C0200F4B1A686A
:1011800082431A60402219680A4308211A600C4BF6
:101190001A688A431A601A681A600A4B1A688243EE
:1011A0001A601A681A60084B1A688A431A601A682B
:1011B0001A60064B1A681A6010BDC0460004004849
:1011C00004040048080400480C04004820040048B7
:1011D00010B5FFF7F3F89022D20513680F489B0073
:1011E0009B08136080231168DB050B4313600C4BD5
:1011F0001968014019601A681A600A4A13689B004E
:101200009B08136013681360074B1A6802401A604A
:101210001A681A60054B5A685A6010BDFF7FFFFFBD
:1012200004000048080000480C0000482000004866
:1012300080221021094B12031A60036808205A7893
:101240000A435A701A78824380201A70044A0006B2
:1012500010601A788A431A707047C0461804004814
:101260001800004810B5037B0400002B04D000696F
:10127000FFF7DEFF0323237310BD70B5046805007C
:10128000237A002B07D0E068FFF7D0FBE068FFF778
:10129000DDFB002323726868FFF7E4FF0023AB73D4
:1012A00070BD0000F0B501261021BA4D42682B68D0
:1012B000571DFA7FDB0B33408A431B01134385B074
:1012C000FB770400FFF79AFB202230404301F87FB0
:1012D00090431843F8776768FFF798FB02000537DB
:1012E000F87F3240B0431043F8776768FFF796FB0A
:1012F0000221053730404300F87F08228843184315
:1013000063682968019380231B011940F8774F42D5
:101310004F41019BFF00581DC37F93433B4304276C
:10132000C3772B689B0A3340C67F9B00BE43334381
:10133000C377994E002900D17162736A019A012026
:1013400053841300117C20220833DF7FC908014039
:10135000974349013943D97721008C3102910A78AA
:1013600040271100039201408A01D97FB943070049
:101370001143D97789490968C9098F43FA000827B9
:10138000D97FB9431143D977E268002711780A075A
:1013900002D4CF06FF0F47401021D87F3F0188437A
:1013A0000743DF7720780138032826D8FEF7C0FEF0
:1013B00004004E00B100EC00039B002B0DD1200077
:1013C0005C30FFF74FFB022307212370636807336C
:1013D000DA7F8A43110001220DE02B681B040ED432
:1013E00020005C30FFF73EFB052207206368227077
:1013F0000733D97F81430A43DA7705B0F0BD2B6804
:101400001B04FAD526005C363000FFF7CFFB33789B
:10141000032B0AD100234021029A30001370636825
:101420000833DA7F8A43DA77CBE7042B01D1300027
:10143000D8E72B685B05E0D40123029A13704022A1
:1014400063680833D97F0A43DA77F0E7039A002A02
:101450000BD001230721019A23700732D37F8B43DE
:10146000190003230B43D377C7E727002A6868379F
:1014700052050AD40122029938000A70D97F3F32FE
:101480000A43DA77FFF7F9FEAEE7FFF7C7FA00285D
:1014900010D0A268736A1821525E1BB29A4209D01A
:1014A0003800FFF7EAFEA3681B8B7362726A6368F9
:1014B0005A84A2E7FFF7AAFA002806D0A268736A46
:1014C0001A21525E1BB29A421DD1BB7B012B12D056
:1014D000022B00D091E7E36E1A7B002A03D01B7B1E
:1014E000032B00D089E72B681B0409D4FFF786FA89
:1014F000002805D181E7A36E1B7A002B00D07CE782
:101500000023BB7379E73800FFF7B7FEA3685B8B56
:10151000CBE72B681B0404D420007830FFF7ADFA2A
:1015200062E72B681B0400D467E72600783630009A
:10153000FFF7A2FB3378032B17D1A268636818204A
:10154000115E3000D9831A21525E1A84FFF795FA92
:1015500002230721237063688D34DA1DD37F8B4308
:1015600006390B43D377217047E72B685B0500D51D
:1015700043E70123029A3000137040226368083366
:10158000D97F0A43DA77C9E720004830FFF780FAAD
:1015900033E7C04610040048002C0140100000480A
:1015A00010B504004068FFF741FA6068FFF74EFA93
:1015B000A068FFF757FE0023237010BD10B504008C
:1015C000007BC0B205280DD8FEF79EFD030D17491C
:1015D0001C34637B002B05D021002648FFF7DAF886
:1015E0000023637310BD244B1B681B04FAD52069CC
:1015F000FFF71EFE03232373F4E7FFF7FFF900282C
:10160000F0D0F4E7E389A28A01339BB2E3819A42E6
:10161000E8D8012308222373236918491B680A604C
:1016200019780A4310211A705A788A435A70002395
:10163000E381D7E7E389A28A01339BB2E3819A422F
:10164000D0D8802102230E4A090223732369116036
:1016500010211B681A780A431A705A78E5E7E38963
:10166000A28A01339BB2E3819A42BBD80023237341
:10167000DEE7C04648010020100400481804004876
:1016800018000048437B002B0CD1074B5A6842607E
:10169000002A00D090601A685860002A00D11860B3
:1016A000012343737047C04648010020164B10B514
:1016B0001B6804001B0413D4037B002B10D10822E9
:1016C000036912491B680A6019780A4310211A70CD
:1016D0005A788A435A7001230373FFF7D3FF10BD72
:1016E000237B022B04D12069FFF7A2FD042309E02C
:1016F000237B042BFAD0237B052BF7D0237BDBB293
:10170000032BECD12373EAE71004004818040048C7
:1017100010B50400FFF772F9002815D1237B002BC8
:1017200012D18021124A09022369116010211B681D
:1017300020001A780A431A705A788A435A70022392
:101740002373FFF79FFF10BD237B012B04D120697A
:10175000FFF76EFD052309E0237B042BFAD0237BE2
:10176000052BF7D0237BDBB2032BECD12373EAE705
:101770001800004870B50400092911D80800FEF7C8
:10178000D7FC0A00100016001E002A0054005C005E
:1017900063000F00DA01626853885383A2681382E2
:1017A00070BD626893889383A2689374F8E7636856
:1017B000DB88D03B5A425341C54A1370F0E7C44B13
:1017C0001A78002A04D061680A890A83A168CA814C
:1017D00001221A70E4E72378022BE1D12600636826
:1017E00068360A255D5FB37BB581002B06D0012BDF
:1017F000D6D12900A06EFFF78BFAD1E7E36E1A7BF2
:10180000002A02D01B7B032BCAD1B24B1B681B04DE
:1018100006D52900A06EFFF77BFA0123B373BFE75B
:10182000FFF7ECF80028F4D1BAE7626893891385D2
:10183000A2681BB2A3859382B2E76368A21DDB890D
:10184000D387A268D382ABE72378002B13D16368D8
:101850001A7C1207A4D501220721D81D2270C27F4D
:1018600008338A43110003220A43C2772022D97F1A
:101870000A43DA7794E7012B29D163681D7C2B0793
:10188000DE0F002B15DB20005C30FFF7EBF80720A4
:1018900062682670D11DCB7F08328343CB77137AE1
:1018A0001B07DB0FD17F19305B0181430B43D377DB
:1018B00076E707263540022D00D071E720005C3026
:1018C000FFF7D0F80423237063689B197DE0032B96
:1018D00016D163681B7C1B07DD0F002B00DA5FE766
:1018E00020007830FFF7C9F8072062682570D11D05
:1018F000CB7F08328343CB77137A1B07DB0FD1E70B
:10190000022B67D163681B7C1A07D50F002A04DB02
:1019100020006830FFF7B1FCE6E7DA0601D49B0649
:1019200003D520006830FFF7A8FC63685A7C1307D2
:10193000DB0F520700D43EE1002B06D123006833B1
:101940009B7B002B14D0022B1ED0072663681D7CC6
:101950003540022D28D120006830FFF78EFC04238B
:10196000626823709219D37FB3431D43D57717E77D
:10197000584B1B681B0402D4E06EFFF797FE230050
:10198000022268339A73E0E7524B1B681B04DCD4D5
:10199000E06EFFF78BFED8E7FFF730F80028EED1B6
:1019A000E06EFFF7B5FEEAE7042D00D0F8E623006D
:1019B0008D331B78002B00D0F2E620006830FFF753
:1019C0005CFC0323237063680733DA7FB24315435B
:1019D000DD77E5E6042B00D08CE063681B7C1A07FA
:1019E000D50F002A04DB20004830FFF7D9FD7BE744
:1019F000DB0602D5E06CFFF729F863681B7C9B06C9
:101A000002D5206DFFF72EFC6268517C0B07DB0FBF
:101A1000490700D4E4E0002B05D1137C9B0602D4D7
:101A2000206DFFF743FE6368E06C1B7C5B0638D4D7
:101A30008022294B92031A600122036859780A43D5
:101A40007F215A701A780A401A706368E06C1B7C18
:101A50007F2B29D8FFF75CF86268517C8B07DB0F7E
:101A6000C90700D4C7E0002B09D1137CDB0606D4DC
:101A7000250048352B78002B19D0022B24D00726BF
:101A800063681D7C3540012D00D089E6114B1B6831
:101A90005B0500D484E620004830FFF781FD022377
:101AA00011E7FEF7C3FFD0E7FFF724F9D4E7094BAE
:101AB0001B689B04E3D4E06CFFF71CF8E06CFFF7B5
:101AC0005DF801232B70DAE7E06CFEF7BFFFF2E769
:101AD0006C0000201004004818000048504B1B68A0
:101AE000DB04CCD4E06CFFF755F8E06CFFF746F868
:101AF0000223E7E7052B00D052E6072563681A7C2E
:101B00002A40022A06D1042158192170C17FA94315
:101B10000A43C2771A7C1207D10F002A00DA3FE687
:101B200007202170D91DCA7F08338243CA7720213C
:101B3000DA7F8A439DE62378042B00D030E6626882
:101B4000537D59061AD5260048363378002B00D02D
:101B500026E6958A334BAD045B6AAD0C5B1BE06CEB
:101B60003382FEF7D5FFE06CFEF760FF002D02D058
:101B7000E06CFFF70FF80323337011E6DB0900D1A7
:101B80000EE6260048363378002B00D008E6958A0A
:101B9000244BAD045B6AAD0CEB18E06C3382FEF7AE
:101BA000B7FFE06CFEF742FF002D02D0E06CFEF7BD
:101BB000A1FF0423E0E7002B00D1C6E62300683331
:101BC0009B7B002B00D1E7E6022B00D0BDE6FEF7A1
:101BD00015FF002800D0B8E6E06EFFF799FDB4E6E7
:101BE000002B00D11FE7137C9B0600D51BE7206D5F
:101BF000FFF78EFD17E7002B00D140E7137CDB06D3
:101C000000D53CE7250048352B78002B00D165E74F
:101C1000012B00D033E7E06CFEF718FF62E7C04607
:101C200010040048002C014070B5FEF7C7FB90235C
:101C3000DB051A68104D114C2A401A608022196881
:101C400092020A431A600E4B1868204018601A6806
:101C50001A600C4B1968294019601A681A600A4BFF
:101C60001A6822401A601A681A600223074A5168EB
:101C70000B43536070BDC046FFFFFCFFFFFEFFFF3C
:101C800004000048080000480C00004820000048FC
:101C900070B5FEF793FB9023DB051A68104D114CCD
:101CA0002A401A608022196812030A431A600E4BF8
:101CB0001868204018601A681A600C4B196829408F
:101CC00019601A681A600A4B1A6822401A601A686A
:101CD0001A602023074A51680B43536070BDC04609
:101CE000FFFFF3FFFFFDFFFF04000048080000486E
:101CF0000C0000482000004810B5FEF75FFB902361
:101D0000C020DB051A6882431A60802219680A43E2
:101D100008211A600C4B1A688A431A601A681A6004
:101D20000A4B1A6882431A601A681A60084B1A68CC
:101D30008A431A601A681A608023064A5B01116898
:101D40000B43136010BDC046040000480800004863
:101D50000C0000482000004810B5FEF72FFB902330
:101D60003020DB051A6882431A60202219680A4372
:101D700004211A600C4B1A688A431A601A681A60A8
:101D80000A4B1A6882431A601A681A60084B1A686C
:101D90008A431A601A681A608023064A5B00116839
:101DA0000B43136010BDC046040000480800004803
:101DB0000C0000482000004810B5FEF7FFFA902301
:101DC0000C20DB051A6882431A60082219680A434E
:101DD00002211A600B4B1A688A431A601A681A604B
:101DE000094B1A6882431A601A681A60074B1A680E
:101DF0008A431A601A681A601023054A11680B4357
:101E0000136010BD04000048080000480C000048A2
:101E10002000004870B50E000500FFF76DFFFFF7CA
:101E20009BFFFFF7C9FFFEF79BFA3468FEF7A4FAA1
:101E30002100FEF787F93A4B3A4C18603379012BB1
:101E40006AD180232268DB00134323607379002B5F
:101E50005ED0802322689B001343334A23601368BB
:101E600032491940B37900261B030B431360042346
:101E700021680B432360082321680B434021236022
:101E80002B4B1868014319608021186801432A20F0
:101E90001960284908608021106809040143116015
:101EA0008022196852000A431A6080221968D20100
:101EB0000A431A600123226813432360FEF796FA4F
:101EC0001D4B1E4A1D601E4B1A60FF221D4B1A60DF
:101ED0001D4B5F3A1E601A60FFF76EF81B4B1C4AE1
:101EE0001D601C4B1A6090221B4B1E601A608022E2
:101EF0002168D2040A4322608022184912050A6030
:101F00000222186802431A608023DB000B6070BD58
:101F10002368134A1340A0E72368124AFAE7C04631
:101F20000C3801400038014004380140FFCFFFFF6A
:101F300008380140143801403C0002402438014078
:101F400038000240340002403000024028000240C5
:101F500028380140240002401C00024000E100E05B
:101F6000FFFDFFFFFFFBFFFFF0B50026B1B0D24B36
:101F70000CACD24D63602633E3602670A560FFF79A
:101F800053FEFFF785FEFEF73DFA802107207027FC
:101F9000CB4B49001A6A0A431A629A688243043892
:101FA00002439A60DA69BA43170010223A43DA61B1
:101FB0009A69C44F8243023802439A619A693A404F
:101FC000114399615E621A88104318801422AB5E37
:101FD000BD4AA38562610FAA226210AA62628022B2
:101FE000BA4BD201A66126776677E68316961A6009
:101FF000B74A1368B34203D111AB136005E0130075
:102000005A68002AFBD111AA5A600026B14BE98A0E
:1020100023631BAB1E7045230AAA9B181E700E2358
:102020000AA81B18D9871EAB1E7010AB63656366C8
:1020300023672C932B00183323A82D932B000FAA72
:1020400018A9067011A82264E2642266E26766633A
:10205000A663E6872165A066E166012429A90E80B2
:102060001A337E212E932FAB1C7095230AA80918D2
:102070000E702AA91B180E701E70FEF7BFFFFEF728
:10208000E9FFFFF717F8FFF745F8FFF773F8FFF7D9
:102090009FF8FEF7C3F9904B874A1B689E610723A0
:1020A000D382EB89FF3613832B8A5383AB7C137067
:1020B00093831823E95ED1831A202B5E1384A88AA8
:1020C000518611000831CB87130056331C70130062
:1020D0008249483310853F2019803823297CD087D6
:1020E000901C9485C6870B40082B4BD0102B4CD0EE
:1020F000182B4DD0202B4DD0282B4ED0302B4ED02E
:10210000383B581E834176485B420340E120400241
:102110001B186A488C07007C4907C007C90FC00F0D
:1021200049000A930AAB18719971E40F1900D06D38
:102130005C71FFF76FFE604B603307930CA8FFF7ED
:10214000B1F8079B1B78DBB20593002B00D150E15F
:102150000027FF22079B1F70624B1B6804979BB2EE
:10216000D61A00970197544BDA6D1978127802232A
:10217000914203D00833002A00D1083B023B082BD0
:10218000F1D88DE0E1239B01C3E79623DB01C0E793
:10219000E123FBE796231B02BBE7E123FBE7962342
:1021A0005B02B6E702230193043379E00323019332
:1021B000DB1875E006260923023B71E000243E4B44
:1021C0000599DA6D0893069207329446009A5200F8
:1021D0000992A3B2BB4200D3C4E0009B089AE31863
:1021E0005233D35C099A0293634618785B780002F5
:1021F000034360008018089A1BB21018C28F458DE7
:102200000392029A002A00D19DE02DB2EA0FD8175E
:10221000AB4242411140039A15B29D4203DA50424B
:102220004241D3B20293029B1940022301349C44E1
:10223000CFE70A23023B072E32D9073B30E01E4B83
:10224000B11EDC6DC9B22000A419FEF775F9A31EFA
:1022500019780A23C2B2023B914221D1013C0012FB
:102260002278C0B2063B82421AD0063318E0124BE5
:10227000DB6D9A78D9781202114300911A795F794F
:1022800012021743CA19013A92B204925A78130003
:10229000032A05D00423102A02D001230193053319
:1022A0001800FDF73BFFC6FFCCFFE4FF2100440010
:1022B0008BFF82008E00A800CC0000209000002040
:1022C000002C0140FFFCFFFFCC27000800E100E0EC
:1022D00064000020D82700081C000020E02E000029
:1022E0008063FEFF340002400A23023B082ED7D150
:1022F000049B092B00D955E7002243497D00CB6D93
:102300009D70974211DD009BC86D9B1808335B00E0
:10231000CB18DC88560080192412C470C86DDB8885
:10232000861901323371D2B2EBE7EE1C43E70A2380
:102330007A000932023BB242B2D1049A033B092A25
:10234000AED9033B2FE7029A9BB2AB4252410398AE
:102350001140059A834203D9020050424241D2B251
:10236000114062E7002900D120E70023264CBB4240
:102370000EDA069859004118009AC879D218097ADD
:1023800052000002A218084301335080DBB2EEE78E
:10239000009B049A934200D90CE75C1CA4B219007C
:1023A0000CA8FFF7E7F90094F2E78023164A5B4296
:1023B000D16D0326487803434B70D36D019A9A7010
:1023C000F9E6114CF1B2E56D2800FEF7B5F8A85515
:1023D000E26D731C0012D054FEF7C0FD0236FEF70A
:1023E000DFFD0A4AB3B213600123094A11680B43A7
:1023F000136030BFA2E6FEF7B1FDFF22054B1A6065
:10240000FEF7DAFDF5E7C046CC00002020000240D0
:102410001C00024034000240044B1A69120603D526
:10242000034A5A60034A5A607047C046002002407F
:1024300023016745AB89EFCD70B5464D0400287880
:10244000042818D8FDF760FE031D39586D002300DD
:10245000343319780323002911D13F4AE0691378F6
:10246000E4180134C65CE07F864207D10133DBB259
:102470000E2B01D0137070BD1170FCE701232B707F
:10248000F9E7364EF368DB07F5D433691B06F2D55E
:10249000FFF7C2FF01233269134333612E4BA06B58
:1024A0001978E3695A5C2E4B1A701B78226B1B0259
:1024B0000B43520013520223E1E7284BDA689206DD
:1024C000D9D52022D9680A43DA60802219690A43E3
:1024D0001A61234B1A78204B1B78E3180133DA7703
:1024E0008022236B920001332363934202D901239C
:1024F000343423700023C2E7184CE368DB07BAD4F6
:1025000023691B06B7D5FFF787FF02232269134310
:102510002361144B63614023226913432361042325
:10252000ADE70E4BDA689206A5D52022D9680026C1
:102530000A43DA608022196920000A431A612300E5
:1025400034331E7020300E22FF2100F00CF9266378
:102550002E7090E73E0000203C000020002002404A
:102560003D000020007C0008404B414AF0B51A6055
:102570009022404BD2051A603F4B404A40491A60B6
:10258000404B414A01241A60404B414A99B01A60BD
:10259000404B414A1A60414B414A1A60414B424A02
:1025A0001A600023414A13605360414A516004217C
:1025B00093601068014311600221106801431160AB
:1025C00011683C48214311603B4AC38103828474F3
:1025D00042613A4A4360826102000E32C2610122C6
:1025E0005242026302003432836003731370344B2F
:1025F000344F83638023344A076011690B431361AE
:10260000FEF766F9051E21D101AC0E222F492000EC
:1026100000F0A0F805A90B0045CC45C3322622885E
:102620006E441A8030000E2200F094F8012309ACA9
:102630005B42236316AB1D70214B6560A56025735B
:1026400020000997E661A363FEF7CAF8194C200041
:10265000FDF75EFF1E4A1F49200000F041F81E49A9
:102660001E48FEF7E1F819B0F0BDC0468400002016
:102670000010024070000020740000200004004898
:102680007FBB000078000020000800487C0000208C
:10269000000C004880000020001400488C0000203E
:1026A000003801408800002000300140480100202F
:1026B00010E000E0900000206400B80B00C0004073
:1026C000007C0008A827000800200240902700088E
:1026D00000000020E107000850010020CC0000208D
:1026E0000B0010B50100180000F002F810BD00004A
:1026F00010B5040004481300002804D00A0002208A
:10270000210000E000BF10BD0000000070B50026F1
:102710000C4D0D4C641BA410A64209D1002600F0FC
:102720002BF80A4D0A4C641BA410A64205D170BDBB
:10273000B300EB5898470136EEE7B300EB589847E3
:102740000136F2E7DC270008DC270008DC27000858
:10275000E4270008002310B59A4200D110BDCC5CDC
:10276000C4540133F8E703001218934200D17047B4
:1027700019700133F9E70000F8B5C046F8BC08BC91
:102780009E467047F8B5C046F8BC08BC9E467047E8
:102790000000000001006400B80B00C00040000011
:1027A00000000000000000003924000800000000C4
:1027B00000000000750F000800000000000000008D
:1027C000C90F000800000000000000002D0B0008E9
:0C27D0000000000000000000BD15000823
:0827DC00E9000008692500086E
:0427E400C100000828
:1027E8000000000000000240080002401C000240F7
:1027F80030000240440002405800024000000048F7
:040000050800025D90
:00000001FF
